:020000040000FA
:060000000A128A110E280D
:10000800FE00030EF3000408F4000A08F5000A12C3
:100018008A1128280A128A1111280A128A113421F1
:100028000A128A11F8000A128A1135210A128A1155
:10003800F9000A128A1136210A128A11FA00FB0104
:1000480083010A128A111729831203130C1F2D2802
:100058002E2845281F0CF100710C0F39003A031D9A
:10006800362837283E281E08F1000310710C7C3E04
:100078009B0044281E08F1000310710C7C3E95007B
:100088000C130B1D4828492897287C2808147B083E
:10009800783E840000080A128A1130210A128A1157
:1000A800003C8312031381009228081088147B08EF
:1000B800783E840000080A128A1130210A128A1137
:1000C800003C8312031381009228881008157B08CE
:1000D800783E840000080A128A1130210A128A1117
:1000E800003C831203138100922808118101922891
:1000F8007B08F100F2017208003A0319842892285B
:100108007108003A03194A28013A03195928033A91
:1001180003196928013A0319792892280130F10056
:100128007108FB070B1175088A0074088400730EA8
:100138008300FE0E7E0E09001F3083160317880009
:10014800890183160313051485140515851585166D
:1001580006148614061386130810881008118312D3
:100168000313850186018701880183160313811310
:10017800033095000F178F160F160F148B170B17D8
:100188000C17831203130C131F139F171F14C3306C
:100198009F051030F600F60BCF28000083160313D6
:1001A8009F131F129F1287140715FA3092003F30D1
:1001B8008312031397051708F0390C3897001D08A8
:1001C800F0390C389D000F309500CF3097058C1012
:1001D8000330920412158C1CF228F328EF288C1097
:1001E80083160313871007110800831203139F183F
:1001F800FE28FF2816291F0CF600760C0F39013A45
:10020800031D072908290B29C3309F050F291F083B
:10021800C33904389F002130F600F60B11298312E8
:1002280003139F1408000A128A11A0200A128A11C7
:100238000A128A11F9200A128A1183120313081468
:100248001030F700F70B262900008312031308105B
:100258001C290A128A110E28F00070081F3E080097
:0602680040344034403434
:04400E00D420FF3F7C
:00000001FF
