:020000040000FA
:060000000A128A1110280B
:10000800FE00030EF6000A08F700831203137F08A8
:10001800F8000A128A1127280A128A111328F901EE
:10002800FA01FB01FC01FD0183120313A001A101E8
:10003800A201A301A401A501A601A701A8018301AA
:100048000A128A117B2C0C1F2A282B2854291F0CD2
:10005800F300730C0F39003A031D332834283B286A
:100068001E08F3000310730C7C3E9B004D291F0CE7
:10007800F300730C0F39013A031D432844284B2819
:100088001E08F3000310730C7C3E95004D291F0CCD
:10009800F300730C0F39023A031D532854289F2884
:1000A8001E08F300F4017308FB007408FC007C08C8
:1000B800803AFF0080307F02031D642856307B029F
:1000C8000318672868286D280A128A111F240A1243
:1000D8008A117C08803AFF0080307F02031D762851
:1000E800AB307B02031879287A288C287C08803A60
:1000F800FF0080307F02031D832856307B02031CDB
:10010800862887288C280A128A1138240A128A110C
:100118007C08803AFF0080307F02031D9528AB30B1
:100128007B02031C982899284D290A128A11512408
:100138000A128A114D291F0CF300730C0F39033A68
:10014800031DA728A828F3281E08F300F401730844
:10015800F9007408FA007A08803AFF0080307F02BC
:10016800031DB828563079020318BB28BC28C128BB
:100178000A128A11D4230A128A117A08803AFF00D7
:1001880080307F02031DCA28AB3079020318CD28BE
:10019800CE28E0287A08803AFF0080307F02031DCD
:1001A800D72856307902031CDA28DB28E0280A12FF
:1001B8008A11ED230A128A117A08803AFF008030EA
:1001C8007F02031DE928AB307902031CEC28ED28D7
:1001D8004D290A128A1106240A128A114D291F0C68
:1001E800F300730C0F39043A031DFB28FC284D2932
:1001F8001E08F300F4017308A6007408A700270876
:10020800803AFF0080307F02031D0C2956302602F9
:1002180003180F29102915290A128A1189230A128D
:100228008A11831203132708803AFF0080307F0267
:10023800031D2029AB302602031823292429382935
:10024800831203132708803AFF0080307F02031DC2
:100258002F2956302602031C3229332938290A123D
:100268008A11A2230A128A11831203132708803ADB
:10027800FF0080307F02031D4329AB302602031C98
:10028800462947294D290A128A11BB230A128A11C5
:100298004D292130F300F30B4F29831203130C135C
:1002A8000B1C57295829AE2A86185B295C29782AFD
:1002B8001F10861717300A128A116A240A128A1127
:1002C800F300F401730883120313A4007408A50053
:1002D80018300A128A116A240A128A11F300F401EA
:1002E800730883120313A2007408A30019300A12BA
:1002F8008A116A240A128A11F300F401730883121E
:100308000313A0007408A1002508803AFF0080307C
:100318007F02031D91295630240203189429952938
:100328009A290A128A111F240A128A1183120313A6
:100338002508803AFF0080307F02031DA529AB30D5
:1003480024020318A829A929BD2983120313250803
:10035800803AFF0080307F02031DB4295630240202
:10036800031CB729B829BD290A128A1138240A1290
:100378008A11831203132508803AFF0080307F0218
:10038800031DC829AB302402031CCB29CC29D12951
:100398000A128A1151240A128A118312031323089C
:1003A800803AFF0080307F02031DDC29563022028C
:1003B8000318DF29E029E5290A128A11D4230A1231
:1003C8008A11831203132308803AFF0080307F02CA
:1003D800031DF029AB3022020318F329F429082A57
:1003E800831203132308803AFF0080307F02031D25
:1003F800FF2956302202031C022A032A082A0A125D
:100408008A11ED230A128A11831203132308803AF2
:10041800FF0080307F02031D132AAB302202031C29
:10042800162A172A1C2A0A128A1106240A128A1165
:10043800831203132108803AFF0080307F02031DD6
:10044800272A5630200203182A2A2B2A302A0A1271
:100458008A1189230A128A11831203132108803A08
:10046800FF0080307F02031D3B2AAB3020020318B7
:100478003E2A3F2A532A831203132108803AFF0099
:1004880080307F02031D4A2A56302002031C4D2A61
:100498004E2A532A0A128A11A2230A128A11831297
:1004A80003132108803AFF0080307F02031D5E2A73
:1004B800AB302002031C612A622A672A0A128A11B9
:1004C800BB230A128A111530F5004B30F400BE30F8
:1004D800F300F30B6D2AF40B6D2AF50B6D2A00005F
:1004E800831203131F14AD2A06187B2A7C2AAB2A11
:1004F80006171730F3007308F0007B080A128A11F8
:100508006D230A128A111830F3007308F000790875
:100518000A128A116D230A128A111930F30073081E
:10052800F0008312031326080A128A116D230A1297
:100538008A110630F5001330F400AD30F300F30BE8
:10054800A32AF40BA32AF50BA32AAA2AAD2A061379
:1005580086130B10780883120313FF0077088A00AC
:10056800760E8300FE0E7E0E09001F3083160317D9
:10057800880089018316031305148514051585154C
:100588008516061486140613861308108810081199
:1005980083120313850186018701880183160313DB
:1005A800811303309500033096000F178F160F162E
:1005B8000F148B170B148B150B170C1783120313BF
:1005C8000C131F139F171F14C3309F05203083126D
:1005D8000313A900A90BEE2A0000831603139F1327
:1005E8001F129F1287140715FA3092003F308312AA
:1005F800031397051708F0390C3897001D08F039D0
:100608000C389D000F309500CF3097058C100330C3
:10061800920412158C1C112B122B0E2B8C10831686
:100628000313871007110800831203139F181D2B4B
:100638001E2B6C2B1F0CA900290C0F39003A031D27
:10064800262B272B2C2B1F08C33904389F00622B1D
:100658001F0CA900290C0F39013A031D342B352B27
:100668003A2B1F08C33908389F00622B1F0CA900BA
:10067800290C0F39023A031D422B432B482B1F0824
:10068800C3390C389F00622B1F0CA900290C0F39A5
:10069800033A031D502B512B562B1F08C339103812
:1006A8009F00622B1F0CA900290C0F39043A031D67
:1006B8005E2B5F2B622BC3309F05622B2030831289
:1006C8000313A900A90B662B0000831203139F14C0
:1006D8000800F1007008831203178D0071088C0060
:1006E8008B13831603178C130C1555308D00AA3005
:1006F8008D008C14831203130D1E832B842B7E2BE9
:100708000D12831603170C11080083120313081522
:100718000630F1003030F000F00B902BF10B902BED
:1007280000008312031308112D30F1002630F00069
:10073800F00B9C2BF10B9C2B000008008312031379
:1007480008150430F100E430F000F00BA92BF10B90
:10075800A92B00008312031308113130F1000B306C
:10076800F000F00BB52BF10BB52BBA2B0800831258
:1007780003130815C730F000C12BC22BF00BC02B98
:10078800C52BC62BC72B8312031308113330F10076
:100798001F30F000F00BCE2BF10BCE2BD32B080023
:1007A8008312031388140630F1003030F000F00B88
:1007B800DB2BF10BDB2B00008312031388102D3089
:1007C800F1002630F000F00BE72BF10BE72B0000CF
:1007D80008008312031388140430F100E430F00099
:1007E800F00BF42BF10BF42B000083120313881089
:1007F8003130F1000B30F000F00B002CF10B002C25
:10080800052C0800831203138814C730F0000C2C41
:100818000D2CF00B0B2C102C112C122C8312031303
:1008280088103330F1001F30F000F00B192CF10B59
:10083800192C1E2C08008312031308140630F1002B
:100848003030F000F00B262CF10B262C0000831220
:10085800031308102F30F100BF30F000F00B322CDA
:10086800F10B322C372C08008312031308140430C0
:10087800F100E430F000F00B3F2CF10B3F2C0000AE
:100888008312031308103130F1000B30F000F00B25
:100898004B2CF10B4B2C502C08008312031308141B
:1008A800C730F000572C582CF00B562C5B2C5C2CC6
:1008B8005D2C8312031308103330F1001F30F00051
:1008C800F00B642CF10B642C692C0800F100710802
:1008D800831203178D00831603178C130C148312CD
:1008E80003170C08F0007008F200720808000A12DA
:1008F8008A11B9220A128A110A128A1118230A12B5
:0A0908008A11802C0A128A111028AF
:04400E00D420FF3F7C
:00000001FF
