:020000040000FA
:060000000A128A11122809
:10000800FE00030E83120313AD000408AE000A08B5
:10001800AF007F08B0000A128A1128280A128A1134
:100028001528FB01FC01FD0183120313A001A101A6
:10003800A201A301A401A501A601A701A801A90184
:1000480083010A128A111E2F0C1F2B282C28FD2829
:100058001F0CAA002A0C0F39003A031D3428352832
:1000680040281E08AA0003102A0C7C3E9B001E088C
:10007800AA002A08A100F3281F0CAA002A0C0F398D
:10008800013A031D4828492854281E08AA000310CD
:100098002A0C7C3E95001E08AA002A08A000F32816
:1000A8001F0CAA002A0C0F39023A031D5C285D2890
:1000B80089281E08AA002A08FD0056307D02031868
:1000C800662867286C280A128A1190260A128A1153
:1000D800AB307D020318712872287D2856307D02C6
:1000E800031C772878287D280A128A11F4260A1218
:1000F8008A11AB307D02031C82288328F3280A1258
:100108008A11A9260A128A11F3281F0CAA002A0CA0
:100118000F39033A031D91289228BE281E08AA0009
:100128002A08FC0056307C0203189B289C28A1282A
:100138000A128A115E260A128A11AB307C02031851
:10014800A628A728B22856307C02031CAC28AD2864
:10015800B2280A128A11DB260A128A11AB307C02F5
:10016800031CB728B828F3280A128A1177260A121E
:100178008A11F3281F0CAA002A0C0F39043A031D10
:10018800C628C728F3281E08AA002A08FB005630EC
:100198007B020318D028D128D6280A128A112C26C7
:1001A8000A128A11AB307B020318DB28DC28E72807
:1001B80056307B02031CE128E228E7280A128A113C
:1001C800C2260A128A11AB307B02031CEC28ED28E8
:1001D800F3280A128A1145260A128A11F3282030B8
:1001E80083120313AA00AA0BF72800008312031333
:1001F8000C130B1C00290129452A861804290529F6
:10020800DA291F10861717300A128A110D270A12C9
:100218008A1183120313AA002A08A60018300A12AA
:100228008A110D270A128A1183120313AA002A08B9
:10023800A50019300A128A110D270A128A11831291
:100248000313AA002A08A40020300A128A110D27D5
:100258000A128A1183120313AA002A08A300213064
:100268000A128A110D270A128A1183120313AA008F
:100278002A08A2002308950022089B00563026026F
:100288000318472948294D290A128A1190260A126B
:100298008A11AB30831203132602031854295529F7
:1002A800602956302602031C5A295B2960290A1244
:1002B8008A11F4260A128A11AB308312031326021C
:1002C800031C672968296D290A128A11A9260A12AE
:1002D8008A115630831203132502031874297529CD
:1002E8007A290A128A115E260A128A11AB30831201
:1002F800031325020318812982298D2956302502E6
:10030800031C872988298D290A128A11DB260A12DB
:100318008A11AB30831203132502031C94299529F3
:100328009A290A128A1177260A128A1156308312DC
:10033800031324020318A129A229A7290A128A1142
:100348002C260A128A11AB308312031324020318D5
:10035800AE29AF29BA2956302402031CB429B5297D
:10036800BA290A128A11C2260A128A11AB308312DC
:1003780003132402031CC129C229C7290A128A119E
:1003880045260A128A11243083120313AC008330E5
:10039800AB00CE30AA00AA0BCF29AB0BCF29AC0BF0
:1003A800CF290000831203131F14442A0618DD29DD
:1003B800DE29282A06171730AA002A08F0007D0827
:1003C8000A128A1110260A128A111830831203138E
:1003D800AA002A08F0007C080A128A1110260A12BC
:1003E8008A11193083120313AA002A08F0007B0827
:1003F8000A128A1110260A128A1120308312031356
:10040800AA002A08F00021080A128A1110260A12E6
:100418008A11213083120313AA002A08F000200849
:100428000A128A1110260A128A110630831203133F
:10043800AC001330AB00AD30AA00AA0B212AAB0BDD
:10044800212AAC0B212A442A06192B2A2C2A422AB3
:10045800A901A90A372A8316031398160A128A11C2
:1004680052220A128A1183120313290303193D2AFF
:100478003E2A2F2A831603139812442A061386133A
:100488000B10831203133008FF002F088A002E0870
:1004980084002D0E8300FE0E7E0E09000330FA0044
:1004A8008A30F9005530F800F80B582AF90B582A09
:1004B800FA0B582A5F2A2A30F1008430F2000A1217
:1004C8008A11EA250A128A110330FA008A30F900E3
:1004D8005530F800F80B6E2AF90B6E2AFA0B6E2AC3
:1004E800752A0030F1008430F2000A128A11EA25D8
:1004F8000A128A110330FA008A30F9005530F800E0
:10050800F80B842AF90B842AFA0B842A8B2A4F3099
:10051800F1008430F2000A128A11EA250A128A11BF
:100528000330FA008A30F9005530F800F80B9A2A9F
:10053800F90B9A2AFA0B9A2AA12A8B30F1008430F7
:10054800F2000A128A11EA250A128A118312031389
:100558008C1EAF2AB02AAA2A31301A06031DB52AE2
:10056800B62A7C2B0630FA001330F900AD30F800BB
:10057800F80BBC2AF90BBC2AFA0BBC2AC32A703028
:10058800F1008430F2000A128A11EA250A128A114F
:100598000330FA008A30F9005530F800F80BD22AF7
:1005A800F90BD22AFA0BD22AD92AA630F1008430C4
:1005B800F2000A128A11EA250A128A110330FA0097
:1005C8008A30F9005530F800F80BE82AF90BE82AC8
:1005D800FA0BE82AEF2ABA30F1008430F2000A1246
:1005E8008A11EA250A128A110330FA008A30F900C2
:1005F8005530F800F80BFE2AF90BFE2AFA0BFE2AF2
:10060800052BCE30F1008430F2000A128A11EA2557
:100618000A128A110330FA008A30F9005530F800BE
:10062800F80B142BF90B142BFA0B142B1B2B83121E
:1006380003138C1E202B212B1B2B61301A06031D44
:10064800262B272B3E2B0A128A11A9260A128A1159
:100658001A30FA005E30F9006E30F800F80B322BD1
:10066800F90B322BFA0B322B00000A128A11902652
:100678000A128A116230831203131A06031D452BCE
:10068800462B5D2B0A128A1177260A128A111A3014
:10069800FA005E30F9006E30F800F80B512BF90BB8
:1006A800512BFA0B512B00000A128A115E260A12EE
:1006B8008A116330831203131A06031D642B652BFA
:1006C8007C2B0A128A1145260A128A111A30FA005E
:1006D8005E30F9006E30F800F80B702BF90B702BB8
:1006E800FA0B702B00000A128A112C260A128A11A2
:1006F8003230831203131A06031D832B842BEB2B32
:10070800F630F1008430F2000A128A11EA250A1242
:100718008A110330FA008A30F9005530F800F80BD6
:10072800932BF90B932BFA0B932B9A2B0730F10091
:100738008530F2000A128A11EA250A128A1103305A
:10074800FA008A30F9005530F800F80BA92BF90B9C
:10075800A92BFA0BA92BB02B1030F1008530F20031
:100768000A128A11EA250A128A110330FA008A301D
:10077800F9005530F800F80BBF2BF90BBF2BFA0B1B
:10078800BF2BC62B831203138C1ECB2BCC2BC62B53
:1007980064301A06031DD12BD22BEA2BA901E230B3
:1007A800F1008430F2000A128A11EA250A128A112D
:1007B8000330FA008A30F9005530F800F80BE22BC4
:1007C800F90BE22BFA0BE22BE92BEB2B1A080800AA
:1007D800FF1BF62B83137F1883170008840A03195D
:1007E800FF0A08007F087F398A000408840A031971
:0407F800FF0A820072
:100800000D34203445346C3469346A346134203416
:1008100075346E34613420346434653420346C347F
:100820006134733420347334693467347534693413
:1008300065346E3474346534733420346F347034FA
:10084000633469346F346E34653473343A3420342D
:100850000D3400340D3420342D342D342D342D340A
:100860002D342D342D342D342D342D342D3442346B
:10087000693465346E34763465346E346934643486
:100880006F342D342D342D342D342D342D342D341E
:100890002D342D342D342D3420340D3400342034B7
:1008A00031342E3420344D346F3476346534723420
:1008B00020346D346F3474346F347234653473346F
:1008C000203469346E346434693476346934643481
:1008D000753461346C346534733420340D34003431
:1008E0000D34203451347534653420346D346F3414
:1008F00074346F3472342034643465347334653442
:10090000613420346D346F347634653472343F345E
:1009100020340D340034203432342E342034533417
:1009200061346C3469347234203464346534203476
:100930006C34613420347434653472346D34693409
:100940006E3461346C3420340D340034203461341E
:100950002E3420344D346F34763465347234203480
:100960006D346F3474346F34723420343134203445
:100970000D340034203462342E3420344D346F343E
:1009800076346534723420346D346F3474346F349B
:1009900072342034323420340D3400342034633443
:1009A0002E3420344D346F34763465347234203430
:1009B0006D346F3474346F347234203433342034F3
:1009C0000D34003420344734723461346334693474
:1009D00061347334203470346F347234203474349E
:1009E0006F3464346F3420340D3400340D342034CB
:1009F000453473347434613420347334653467346B
:100A0000753472346F343F3420340D340034203464
:100A100064342E3420345334693420340D3400349B
:100A2000203465342E3420344E346F3420340D3469
:100A300000341F30831603178800890183160313BF
:100A400005148514051585158516061486140615D6
:100A500006138613081088100811831203138501EA
:100A600086018701880183160313811307309500DF
:100A7000073096000F178F160F160F148B170B14D5
:100A80008B150B170C17831203130C138316031308
:100A90008C160C16831203131F139F171F14C330D9
:100AA0009F05203083120313B100B10B552D0000B8
:100AB000831603139F131F129F1287140715FA3012
:100AC00092003F308312031397051708F0390C3852
:100AD00097001D08F0390C389D000F309500CF307D
:100AE00097058C100330920412158C1C782D792DEB
:100AF000752D8C1083160313871007111812181503
:100B0000831603178715D0308316031399009A01B3
:100B100083120313981718131816831603139812C9
:100B2000831203138C120C120800831203139F18F4
:100B30009A2D9B2DE92D1F0CB100310C0F39003A75
:100B4000031DA32DA42DA92D1F08C33904389F0010
:100B5000DF2D1F0CB100310C0F39013A031DB12DEF
:100B6000B22DB72D1F08C33908389F00DF2D1F0C89
:100B7000B100310C0F39023A031DBF2DC02DC52D18
:100B80001F08C3390C389F00DF2D1F0CB100310C3A
:100B90000F39033A031DCD2DCE2DD32D1F08C33998
:100BA00010389F00DF2D1F0CB100310C0F39043AB3
:100BB000031DDB2DDC2DDF2DC3309F05DF2D203005
:100BC00083120313B100B10BE32D00008312031352
:100BD0009F1408007330F3007308F600F52D7708B2
:100BE0000A128A112C270A128A117208F40071085D
:100BF000F300F10A0319F20A740883120313FF00C9
:100C0000730884000A128A11EC230A128A11F50073
:100C10007508F7007708031D0E2E0F2EEF2D080024
:100C2000F1007008831203178D0071088C008B137C
:100C3000831603178C130C1555308D00AA308D00C8
:100C40008C14831203130D1E262E272E212E0D1217
:100C5000831603170C1108008312031308150630BE
:100C6000F1003030F000F00B332EF10B332E00008A
:100C70008312031308112D30F1002630F000F00B21
:100C80003F2EF10B3F2E00000800831203130815BE
:100C9000C730F0004B2E4C2EF00B4A2E4F2E502E0C
:100CA000512E8312031308113330F1001F30F0006E
:100CB000F00B582EF10B582E5D2E080083120313F3
:100CC00088140630F1003030F000F00B652EF10B87
:100CD000652E00008312031388102D30F10026309A
:100CE000F000F00B712EF10B712E00000800831242
:100CF00003138814C730F0007D2E7E2EF00B7C2E5F
:100D0000812E822E832E8312031388103330F1003C
:100D10001F30F000F00B8A2EF10B8A2E8F2E080068
:100D20008312031308140630F1003030F000F00B8A
:100D3000972EF10B972E00008312031308102F300B
:100D4000F100BF30F000F00BA32EF10BA32EA82E64
:100D50000800831203130814C730F000AF2EB02E22
:100D6000F00BAE2EB32EB42EB52E83120313081043
:100D70003330F1001F30F000F00BBC2EF10BBC2E15
:100D8000C12E08008312031308150430F100E4306B
:100D9000F000F00BC92EF10BC92E000083120313D3
:100DA00008113130F1000B30F000F00BD52EF10BB3
:100DB000D52EDA2E08008312031388140430F100B4
:100DC000E430F000F00BE22EF10BE22E0000831273
:100DD000031388103130F1000B30F000F00BEE2ED1
:100DE000F10BEE2EF32E08008312031308140430C7
:100DF000F100E430F000F00BFB2EF10BFB2E0000B5
:100E00008312031308103130F1000B30F000F00BA7
:100E1000072FF10B072F0C2F0800F1007108831228
:100E200003178D00831603178C130C1483120317FA
:100E30000C08F0007008F200720808000A128A110B
:100E400019250A128A110A128A1195250A128A1185
:100E5000232F0A128A111228F000831203130C1E8A
:0C0E6000322F332F2D2F7008990008004E
:04400E00D420FF3F7C
:00000001FF
