:020000040000FA
:060000000A128A110C280F
:10000800FE00030EF1000A08F2000A128A11922873
:100018000A128A110F2883010A128A116B281F30CD
:1000280083160317880089018316031305148514A2
:1000380005158515851606148614061386130810EB
:10004800881008118312031385018601870188012E
:10005800831603138113033095000F178F160F12A1
:100068000F148B170B170C17831203130C131F1382
:100078009F171F14C3309F052130F300F30B42284C
:10008800831603139F131F129F1287140715FA3044
:1000980092003F308312031397051708F0390C3884
:1000A80097001D08F0390C389D000F309500CF30AF
:1000B80097058C100330920412158C1C642865284F
:1000C80061288C10831603138710071108000A1281
:1000D8008A1113200A128A11831203139F18752894
:1000E800762870281F0CF400740C0F39013A031D90
:1000F8007E287F288228C3309F0586281F08C33999
:1001080004389F004230F400F40B88280000831262
:1001180003139F1470280A128A110C2883120313E0
:100128000C1F97289828AF281F0CF000700C0F3967
:10013800003A031DA028A128A8281E08F0000310D3
:10014800700C7C3E9B00AE281E08F0000310700C5B
:100158007C3E95000C1372088A00710E8300FE0E17
:040168007E0E0900FE
:04400E00D420FF3F7C
:00000001FF
