:020000040000FA
:060000000A128A11122809
:10000800FE00030E83120313AD000408AE000A08B5
:10001800AF007F08B0000A128A1128280A128A1134
:100028001528FB01FC01FD0183120313A001A101A6
:10003800A201A301A401A501A601A701A801A90184
:1000480083010A128A115D2C0C1F2B282C28FD28ED
:100058001F0CAA002A0C0F39003A031D3428352832
:1000680040281E08AA0003102A0C7C3E9B001E088C
:10007800AA002A08A100F3281F0CAA002A0C0F398D
:10008800013A031D4828492854281E08AA000310CD
:100098002A0C7C3E95001E08AA002A08A000F32816
:1000A8001F0CAA002A0C0F39023A031D5C285D2890
:1000B80089281E08AA002A08FD0056307D02031868
:1000C800662867286C280A128A1132240A128A11B3
:1000D800AB307D020318712872287D2856307D02C6
:1000E800031C772878287D280A128A11A4270A1267
:1000F8008A11AB307D02031C82288328F3280A1258
:100108008A11BD270A128A11F3281F0CAA002A0C8B
:100118000F39033A031D91289228BE281E08AA0009
:100128002A08FC0056307C0203189B289C28A1282A
:100138000A128A1119240A128A11AB307C02031898
:10014800A628A728B22856307C02031CAC28AD2864
:10015800B2280A128A1172270A128A11AB307C025D
:10016800031CB728B828F3280A128A118B270A1209
:100178008A11F3281F0CAA002A0C0F39043A031D10
:10018800C628C728F3281E08AA002A08FB005630EC
:100198007B020318D028D128D6280A128A11D6271C
:1001A8000A128A11AB307B020318DB28DC28E72807
:1001B80056307B02031CE128E228E7280A128A113C
:1001C80040270A128A11AB307B02031CEC28ED2869
:1001D800F3280A128A1159270A128A11F3282030A3
:1001E80083120313AA00AA0BF72800008312031333
:1001F8000C130B1C00290129452A861804290529F6
:10020800DA291F10861717300A128A11EF270A12E7
:100218008A1183120313AA002A08A60018300A12AA
:100228008A11EF270A128A1183120313AA002A08D7
:10023800A50019300A128A11EF270A128A118312AF
:100248000313AA002A08A40020300A128A11EF27F3
:100258000A128A1183120313AA002A08A300213064
:100268000A128A11EF270A128A1183120313AA00AD
:100278002A08A2002308950022089B00563026026F
:100288000318472948294D290A128A1132240A12CB
:100298008A11AB30831203132602031854295529F7
:1002A800602956302602031C5A295B2960290A1244
:1002B8008A11A4270A128A11AB308312031326026B
:1002C800031C672968296D290A128A11BD270A1299
:1002D8008A115630831203132502031874297529CD
:1002E8007A290A128A1119240A128A11AB30831248
:1002F800031325020318812982298D2956302502E6
:10030800031C872988298D290A128A1172270A1243
:100318008A11AB30831203132502031C94299529F3
:100328009A290A128A118B270A128A1156308312C7
:10033800031324020318A129A229A7290A128A1142
:10034800D6270A128A11AB3083120313240203182A
:10035800AE29AF29BA2956302402031CB429B5297D
:10036800BA290A128A1140270A128A11AB3083125D
:1003780003132402031CC129C229C7290A128A119E
:1003880059270A128A11243083120313AC008330D0
:10039800AB00CE30AA00AA0BCF29AB0BCF29AC0BF0
:1003A800CF290000831203131F14442A0618DD29DD
:1003B800DE29282A06171730AA002A08F0007D0827
:1003C8000A128A1124270A128A1118308312031379
:1003D800AA002A08F0007C080A128A1124270A12A7
:1003E8008A11193083120313AA002A08F0007B0827
:1003F8000A128A1124270A128A1120308312031341
:10040800AA002A08F00021080A128A1124270A12D1
:100418008A11213083120313AA002A08F000200849
:100428000A128A1124270A128A110630831203132A
:10043800AC001330AB00AD30AA00AA0B212AAB0BDD
:10044800212AAC0B212A442A06192B2A2C2A422AB3
:10045800A901A90A372A8316031398160A128A11C2
:1004680052220A128A1183120313290303193D2AFF
:100478003E2A2F2A831603139812442A061386133A
:100488000B10831203133008FF002F088A002E0870
:1004980084002D0E8300FE0E7E0E09000330FA0044
:1004A8008A30F9005530F800F80B582AF90B582A09
:1004B800FA0B582A5F2A2A30F1008530F2000A1216
:1004C8008A11FE260A128A110330FA008A30F900CE
:1004D8005530F800F80B6E2AF90B6E2AFA0B6E2AC3
:1004E800752A0030F1008530F2000A128A11FE26C2
:1004F8000A128A110330FA008A30F9005530F800E0
:10050800F80B842AF90B842AFA0B842A8B2A4F3099
:10051800F1008530F2000A128A11FE260A128A11A9
:100528000330FA008A30F9005530F800F80B9A2A9F
:10053800F90B9A2AFA0B9A2AA12AF630F10085308B
:10054800F2000A128A11FE260A128A110330FA00F2
:100558008A30F9005530F800F80BB02AF90BB02AA8
:10056800FA0BB02AB72A8B30F1008530F2000A1254
:100578008A11FE260A128A11831203138C1EC52AB9
:10058800C62AC02A31301A06031DCB2ACC2A922B40
:100598000630FA001330F900AD30F800F80BD22A13
:1005A800F90BD22AFA0BD22AD92A7030F1008530F9
:1005B800F2000A128A11FE260A128A110330FA0082
:1005C8008A30F9005530F800F80BE82AF90BE82AC8
:1005D800FA0BE82AEF2AA630F1008530F2000A1259
:1005E8008A11FE260A128A110330FA008A30F900AD
:1005F8005530F800F80BFE2AF90BFE2AFA0BFE2AF2
:10060800052BBA30F1008530F2000A128A11FE2655
:100618000A128A110330FA008A30F9005530F800BE
:10062800F80B142BF90B142BFA0B142B1B2BCE30B5
:10063800F1008530F2000A128A11FE260A128A1188
:100648000330FA008A30F9005530F800F80B2A2BED
:10065800F90B2A2BFA0B2A2B312B831203138C1E2E
:10066800362B372B312B61301A06031D3C2B3D2BC3
:10067800542B0A128A11BD270A128A110B30FA006C
:100688002630F9005D30F800F80B482BF90B482BA1
:10069800FA0B482B4F2B0A128A11A4270A128A1127
:1006A8006230831203131A06031D5B2B5C2B732B1A
:1006B8000A128A118B270A128A110B30FA00263087
:1006C800F9005D30F800F80B672BF90B672BFA0B74
:1006D800672B6E2B0A128A1172270A128A1163304D
:1006E800831203131A06031D7A2B7B2B922B0A12F3
:1006F8008A1159270A128A110B30FA002630F9009C
:100708005D30F800F80B862BF90B862BFA0B862B3D
:100718008D2B0A128A1140270A128A11323083124D
:1007280003131A06031D992B9A2BAB2B06170630B9
:10073800FA001330F900AD30F800F80BA12BF90BD3
:10074800A12BFA0BA12BA82B83120313061333300A
:100758001A06031DB02BB12B182C0A30F100863075
:10076800F2000A128A11FE260A128A110330FA00D0
:100778008A30F9005530F800F80BC02BF90BC02B64
:10078800FA0BC02BC72B1B30F1008630F2000A127F
:100798008A11FE260A128A110330FA008A30F900FB
:1007A8005530F800F80BD62BF90BD62BFA0BD62BB5
:1007B800DD2B2430F1008630F2000A128A11FE2661
:1007C8000A128A110330FA008A30F9005530F8000D
:1007D800F80BEC2BF90BEC2BFA0BEC2BF32B83120D
:1007E80003138C1EF82BF92BF32B64301A06031D08
:1007F800FE2BFF2B172CA901E230F1008530F20007
:100808000A128A11FE260A128A110330FA008A3067
:10081800F9005530F800F80B0F2CF90B0F2CFA0BD8
:100828000F2C162C182C1A0808008312031388148E
:100838000630F1003030F000F00B202CF10B202CAA
:1008480000008312031388102D30F1002630F000C9
:10085800F00B2C2CF10B2C2C000008008312031336
:1008680008140630F1003030F000F00B392CF10B91
:10087800392C00008312031308102F30F100BF3009
:10088800F000F00B452CF10B452C4A2C0800FF1BFF
:10089800552C83137F1883170008840A0319FF0A4D
:1008A80008007F087F398A000408840A0319FF0AB0
:1008B80082000A128A112D260A128A110A128A1136
:1008C800A9260A128A11622C0A128A111228F0002B
:1008D800831203130C1E712C722C6C2C7008990057
:0208E800080006
:100A00000A34203445346C3469346A346134203417
:100A100075346E34613420346434653420346C347D
:100A20006134733420347334693467347534693411
:100A300065346E3474346534733420346F347034F8
:100A4000633469346F346E34653473343A3420342B
:100A50000A3400340A3420342D342D342D342D340E
:100A60002D342D342D342D342D342D342D34423469
:100A7000693465346E34763465346E346934643484
:100A80006F342D342D342D342D342D342D342D341C
:100A90002D342D342D342D3420340A3400342034B8
:100AA00031342E3420344D346F347634653472341E
:100AB00020346D346F3474346F347234653473346D
:100AC000203469346E34643469347634693464347F
:100AD000753461346C346534733420340A34003432
:100AE0000A34203451347534653420346D346F3415
:100AF00074346F3472342034643465347334653440
:100B0000613420346D346F347634653472343F345C
:100B100020340A340034203433342E342034533417
:100B200061346C3469347234203464346534203474
:100B30006C34613420347434653472346D34693407
:100B40006E3461346C3420340A340034203461341F
:100B50002E3420344D346F3476346534723420347E
:100B60006D346F3474346F34723420343134203443
:100B70000A340034203462342E3420344D346F343F
:100B800076346534723420346D346F3474346F3499
:100B900072342034323420340A3400342034633444
:100BA0002E3420344D346F3476346534723420342E
:100BB0006D346F3474346F347234203433342034F1
:100BC0000A34003420344734723461346334693475
:100BD00061347334203470346F347234203474349C
:100BE0006F3464346F3420340A34003420343234A7
:100BF0002E34203445346E34633465346E346434BA
:100C00006534723420346C34653464347334203485
:100C10000A3400340D342034453473347434613470
:100C20002034733465346734753472346F343F3430
:100C300020340A340034203464342E3420345334C5
:100C4000693420340A340034203465342E3420349E
:100C50004E346F3420340A3400341F3083160317A7
:100C6000880089018316031305148514051585155D
:100C700085160614861406150613861308108810A8
:100C800008118312031385018601870188018316E9
:100C90000313811307309500073096000F178F1646
:100CA0000F160F148B170B148B150B170C178312C1
:100CB00003130C13831603138C160C1683120313E1
:100CC0001F139F171F14C3309F0520308312031377
:100CD000B100B10B692E0000831603139F131F127E
:100CE0009F1287140715FA3092003F3083120313C6
:100CF00097051708F0390C3897001D08F0390C38A3
:100D00009D000F309500CF3097058C100330920472
:100D100012158C1C8C2E8D2E892E8C10831603138D
:100D20008710071118121815831603178715D0306E
:100D30008316031399009A0183120313981718134B
:100D40001816831603139812831203138C120C12B5
:100D50000800831203139F18AE2EAF2EFD2E1F0C1A
:100D6000B100310C0F39003A031DB72EB82EBD2E3D
:100D70001F08C33904389F00F32E1F0CB100310C3B
:100D80000F39013A031DC52EC62ECB2E1F08C339BD
:100D900008389F00F32E1F0CB100310C0F39023AB6
:100DA000031DD32ED42ED92E1F08C3390C389F0013
:100DB000F32E1F0CB100310C0F39033A031DE12E45
:100DC000E22EE72E1F08C33910389F00F32E1F0CA8
:100DD000B100310C0F39043A031DEF2EF02EF32E23
:100DE000C3309F05F32E203083120313B100B10BE3
:100DF000F72E0000831203139F1408007330F300D2
:100E00007308F600092F77080A128A116B240A1258
:100E10008A117208F4007108F300F10A0319F20A4A
:100E2000740883120313FF00730884000A128A11E6
:100E30004B240A128A11F5007508F7007708031D84
:100E4000222F232F032F0800F100700883120317AD
:100E50008D0071088C008B13831603178C130C15EF
:100E600055308D00AA308D008C14831203130D1E93
:100E70003A2F3B2F352F0D12831603170C11080044
:100E80008312031308150430F100E430F000F00B76
:100E9000472FF10B472F0000831203130811313045
:100EA000F1000B30F000F00B532FF10B532F582FA4
:100EB0000800831203130815C730F0005F2F602F5E
:100EC000F00B5E2F632F642F652F8312031308111D
:100ED0003330F1001F30F000F00B6C2FF10B6C2F52
:100EE000712F08008312031388140430F100E430DA
:100EF000F000F00B792FF10B792F00008312031310
:100F000088103130F1000B30F000F00B852FF10B21
:100F1000852F8A2F0800831203138814C730F0002E
:100F2000912F922FF00B902F952F962F972F8312A2
:100F3000031388103330F1001F30F000F00B9E2FA8
:100F4000F10B9E2FA32F0800831203130814043003
:100F5000F100E430F000F00BAB2FF10BAB2F0000F1
:100F60008312031308103130F1000B30F000F00B46
:100F7000B72FF10BB72FBC2F0800831203130814EF
:100F8000C730F000C32FC42FF00BC22FC72FC82FBC
:100F9000C92F8312031308103330F1001F30F00003
:100FA000F00BD02FF10BD02FD52F08008312031395
:100FB00008150630F1003030F000F00BDD2FF10B9A
:100FC000DD2F00008312031308112D30F1002630AD
:100FD000F000F00BE92FF10BE92F00000800F10001
:100FE0007108831203178D00831603178C130C14DA
:100FF000831203170C08F0007008F2007208080052
:04400E00D420FF3F7C
:00000001FF
