:020000040000FA
:060000000A128A1110280B
:10000800FE00030EF4000A08F500831203137F08AC
:10001800F6000A128A1119280A128A111328F70100
:10002800F80183010A128A11F12A0C1F1C281D28C5
:1000380040291F0CF200720C0F39003A031D2528C5
:1000480026282D281E08F2000310720C7C3E9B0007
:1000580039291F0CF200720C0F39013A031D35289B
:1000680036283D281E08F2000310720C7C3E9500CD
:1000780039291F0CF200720C0F39023A031D45286A
:10008800462891281E08F200F3017208F700730849
:10009800F8007808803AFF0080307F02031D562858
:1000A80056307702031859285A285F280A128A11ED
:1000B800A6220A128A117808803AFF0080307F024F
:1000C800031D6828AB30770203186B286C287E283C
:1000D8007808803AFF0080307F02031D752856306B
:1000E8007702031C782879287E280A128A11BF22F1
:1000F8000A128A117808803AFF0080307F02031DB7
:100108008728AB307702031C8A288B2839290A12E2
:100118008A11D8220A128A1139291F0CF200720C8E
:100128000F39033A031D99289A28E5281E08F2007A
:10013800F3017208F7007308F8007808803AFF00A6
:1001480080307F02031DAA28563077020318AD2895
:10015800AE28B3280A128A115B220A128A1178087B
:10016800803AFF0080307F02031DBC28AB30770245
:100178000318BF28C028D2287808803AFF008030AA
:100188007F02031DC92856307702031CCC28CD28CE
:10019800D2280A128A1174220A128A117808803A1F
:1001A800FF0080307F02031DDB28AB307702031C81
:1001B800DE28DF2839290A128A118D220A128A11AB
:1001C80039291F0CF200720C0F39043A031DED286F
:1001D800EE2839291E08F200F3017208F7007308A7
:1001E800F8007808803AFF0080307F02031DFE285F
:1001F8005630770203180129022907290A128A11A1
:1002080010220A128A117808803AFF0080307F0293
:10021800031D1029AB307702031813291429262946
:100228007808803AFF0080307F02031D1D29563070
:100238007702031C2029212926290A128A1129223A
:100248000A128A117808803AFF0080307F02031D65
:100258002F29AB307702031C3229332939290A1296
:100268008A1142220A128A1139292130F200F20B2E
:100278003B29831203130C130B1C432944295329CC
:100288008618472948294A298617522906184D29C8
:100298004E29502906175229061386130B10760883
:1002A800FF0075088A00740E8300FE0E7E0E09009A
:1002B8001F3083160317880089018316031305145A
:1002C80085140515851585160614861406138613D8
:1002D800081088100811831203138501860187010D
:1002E80088018316031381130330950003309600A9
:1002F8000F178F160F160F148B170B148B150B1760
:100308000C17831203130C131F139F171F14C330EA
:100318009F05203083120313A000A00B9129000031
:10032800831603139F131F129F1287140715FA30A1
:1003380092003F308312031397051708F0390C38E1
:1003480097001D08F0390C389D000F309500CF300C
:1003580097058C100330920412158C1CB429B5290A
:10036800B1298C1083160313871007110800831214
:1003780003139F18C029C1290F2A1F0CA000200CA5
:100388000F39003A031DC929CA29CF291F08C339C3
:1003980004389F00052A1F0CA000200C0F39013AD1
:1003A800031DD729D829DD291F08C33908389F001C
:1003B800052A1F0CA000200C0F39023A031DE5295D
:1003C800E629EB291F08C3390C389F00052A1F0CA2
:1003D800A000200C0F39033A031DF329F429F92949
:1003E8001F08C33910389F00052A1F0CA000200CD5
:1003F8000F39043A031D012A022A052AC3309F0532
:10040800052A203083120313A000A00B092A00003C
:10041800831203139F140800831203130815063070
:10042800F1003030F000F00B172AF10B172A00000A
:100438008312031308112D30F1002630F000F00B61
:10044800232AF10B232A000008008312031308153E
:100458000430F100E430F000F00B302AF10B302AC0
:1004680000008312031308113130F1000B30F00043
:10047800F00B3C2AF10B3C2A412A08008312031393
:100488000815C730F000482A492AF00B472A4C2A99
:100498004D2A4E2A8312031308113330F1001F30FE
:1004A800F000F00B552AF10B552A5A2A080083123E
:1004B800031388140630F1003030F000F00B622A84
:1004C800F10B622A00008312031388102D30F1000B
:1004D8002630F000F00B6E2AF10B6E2A000008009F
:1004E8008312031388140430F100E430F000F00B99
:1004F8007B2AF10B7B2A000083120313881031300A
:10050800F1000B30F000F00B872AF10B872A8C2AB8
:100518000800831203138814C730F000932A942A22
:10052800F00B922A972A982A992A83120313881083
:100538003330F1001F30F000F00BA02AF10BA02A95
:10054800A52A08008312031308140630F10030307E
:10055800F000F00BAD2AF10BAD2A00008312031353
:1005680008102F30F100BF30F000F00BB92AF10B62
:10057800B92ABE2A08008312031308140430F100B4
:10058800E430F000F00BC62AF10BC62A00008312F3
:10059800031308103130F1000B30F000F00BD22AB1
:1005A800F10BD22AD72A0800831203130814C73084
:1005B800F000DE2ADF2AF00BDD2AE22AE32AE42A09
:1005C8008312031308103330F1001F30F000F00BD2
:1005D800EB2AF10BEB2AF02A08000A128A115C2197
:1005E8000A128A110A128A11BB210A128A11F62AE2
:0605F8000A128A1110280E
:04400E00D420FF3F7C
:00000001FF
