:020000040000FA
:060000000A128A11122809
:10000800FE00030E83120313B8000408B9000A089F
:10001800BA007F08BB000A128A1125280A128A1121
:100028001528FB01FC01FD018313203084003530C5
:100038000A128A11F7270A128A1183010A128A15ED
:10004800322F0C1F2828292869291F0CB500350CC8
:100058000F39003A031D3128322840281E08B50000
:100068000310350C7C3E9B001E08B500B601350810
:10007800A2003608A3005F291F0CB500350C0F3904
:10008800013A031D4828492857281E08B5000310BF
:10009800350C7C3E95001E08B500B6013508A00059
:1000A8003608A1005F291F0CB500350C0F39023A3C
:1000B800031D5F286028AB281E08B500B601350867
:1000C800FB003608FC007C08803AFF0080307F0285
:1000D800031D702856307B0203187328742879286A
:1000E8000A128A11CB250A128A117C08803AFF006D
:1000F80080307F02031D8228AB307B0203188528DD
:10010800862898287C08803AFF0080307F02031DEB
:100118008F2856307B02031C9228932898280A12AD
:100128008A1551270A128A117C08803AFF0080300C
:100138007F02031DA128AB307B02031CA428A5283D
:100148005F290A128A11E4250A128A115F291F0CF5
:10015800B500350C0F39033A031DB328B428052917
:100168001E08B500B6013508B2003608B3003308DA
:10017800803AFF0080307F02031DC42856303202C7
:100188000318C728C828CD280A128A159C270A12DE
:100198008A11831203133308803AFF0080307F02EC
:1001A800031DD828AB3032020318DB28DC28F028DE
:1001B800831203133308803AFF0080307F02031D47
:1001C800E72856303202031CEA28EB28F0280A12E6
:1001D8008A1583270A128A11831203133308803A77
:1001E800FF0080307F02031DFB28AB303202031C66
:1001F800FE28FF285F290A128A156A270A128A111F
:100208005F291F0CB500350C0F39043A031D0D2961
:100218000E295F291E08B500B6013508B00036085A
:10022800B1003108803AFF0080307F02031D1E298B
:100238005630300203182129222927290A128A1543
:10024800E7270A128A11831203133108803AFF0044
:1002580080307F02031D3229AB3030020318352964
:1002680036294A29831203133108803AFF00803067
:100278007F02031D412956303002031C44294529B9
:100288004A290A128A15CE270A128A1183120313E1
:100298003108803AFF0080307F02031D5529AB30BA
:1002A8003002031C582959295F290A128A15B527D3
:1002B8000A128A115F29203083120313B500B50B87
:1002C80063290000831203130C130B1C6C296D297E
:1002D800272B861870297129BF2A1F1086171730F7
:1002E8000A128A1540270A128A1183120313B500CD
:1002F800B6013508AC003608AD0018300A128A1568
:1003080040270A128A1183120313B500B601350873
:10031800AA003608AB0019300A128A1540270A12BB
:100328008A1183120313B500B6013508A8003608F0
:10033800A90020300A128A1540270A128A1183124E
:100348000313B500B6013508A6003608A70021300A
:100358000A128A1540270A128A1183120313B5005C
:10036800B6013508A4003608A5002708B6002608F7
:10037800B500360DB60CB50C35087C3E9500250841
:10038800B6002408B500360DB60CB50C35087C3E11
:100398009B002D08803AFF0080307F02031DD6297C
:1003A80056302C020318D929DA29DF290A128A11B2
:1003B800CB250A128A11831203132D08803AFF00F5
:1003C80080307F02031DEA29AB302C020318ED2987
:1003D800EE29022A831203132D08803AFF00803089
:1003E8007F02031DF92956302C02031CFC29FD2924
:1003F800022A0A128A1551270A128A118312031334
:100408002D08803AFF0080307F02031D0D2AAB3093
:100418002C02031C102A112A162A0A128A11E42512
:100428000A128A11831203132B08803AFF008030C6
:100438007F02031D212A56302A020318242A252A5E
:100448002A2A0A128A159C270A128A118312031370
:100458002B08803AFF0080307F02031D352AAB301D
:100468002A020318382A392A4D2A831203132B0823
:10047800803AFF0080307F02031D442A56302A024A
:10048800031C472A482A4D2A0A128A1583270A126A
:100498008A11831203132B08803AFF0080307F02F1
:1004A800031D582AAB302A02031C5B2A5C2A612AE6
:1004B8000A128A156A270A128A1183120313290855
:1004C800803AFF0080307F02031D6C2A56302802D4
:1004D80003186F2A702A752A0A128A15E7270A1242
:1004E8008A11831203132908803AFF0080307F02A3
:1004F800031D802AAB3028020318832A842A982AED
:10050800831203132908803AFF0080307F02031DFD
:100518008F2A56302802031C922A932A982A0A12F4
:100528008A15CE270A128A11831203132908803AE2
:10053800FF0080307F02031DA32AAB302802031C72
:10054800A62AA72AAC2A0A128A15B5270A128A11DE
:10055800243083120313B7008330B600CE30B500C1
:10056800B50BB42AB60BB42AB70BB42A0000831211
:1005780003131F14262B0618C22AC32A0D2B06178D
:100588001730B5003508F0007B080A128A11DB27FE
:100598000A128A11183083120313B5003508F000C7
:1005A80032080A128A11DB270A128A1119308312BB
:1005B8000313B5003508F00030080A128A11DB274A
:1005C8000A128A11203083120313B5003508F0008F
:1005D80022080A128A11DB270A128A112130831293
:1005E8000313B5003508F00020080A128A11DB272A
:1005F8000A128A11063083120313B7001330B600AB
:10060800AD30B500B50B062BB60B062BB70B062B7A
:10061800262B0619102B112B242B0130AE0000308D
:10062800AF001B2B0A128A1134230A128A11831273
:1006380003132E032F040319222B232B162B262BEF
:10064800061386130B10831203133B08FF003A08A6
:100658008A0039088400380E8300FE0E7E0E0900D9
:100668000330FA008A30F9005530F800F80B3A2BBD
:10067800F90B3A2BFA0B3A2B412B2A30F100863032
:10068800F2000A128A11A5250A128A110330FA000B
:100698008A30F9005530F800F80B502BF90B502B25
:1006A800FA0B502B572B0030F1008630F2000A125B
:1006B8008A11A5250A128A110330FA008A30F90036
:1006C8005530F800F80B662BF90B662BFA0B662BE6
:1006D8006D2B4F30F1008630F2000A128A11A525E1
:1006E8000A128A110330FA008A30F9005530F800EE
:1006F800F80B7C2BF90B7C2BFA0B7C2B832BBE3055
:10070800F1008630F2000A128A11A5250A128A1110
:100718000330FA008A30F9005530F800F80B922BB4
:10072800F90B922BFA0B922B992B8B30F100863018
:10073800F2000A128A11A5250A128A1183120313DC
:100748008C1EA72BA82BA22B31301A06031DAD2B0C
:10075800AE2BDE2C0630FA001330F900AD30F8006D
:10076800F80BB42BF90BB42BFA0BB42BBB2B703052
:10077800F1008630F2000A128A11A5250A128A11A0
:100788000330FA008A30F9005530F800F80BCA2B0C
:10079800F90BCA2BFA0BCA2BD12BD630F1008630B5
:1007A800F2000A128A11A5250A128A110330FA00EA
:1007B8008A30F9005530F800F80BE02BF90BE02BE4
:1007C800FA0BE02BE72BEA30F1008630F2000A1230
:1007D8008A11A5250A128A110330FA008A30F90015
:1007E8005530F800F80BF62BF90BF62BFA0BF62B15
:1007F800FD2BFE30F1008630F2000A128A11A52581
:100808000A128A110330FA008A30F9005530F800CC
:10081800F80B0C2CF90B0C2CFA0B0C2C132C12309B
:10082800F1008730F2000A128A11A5250A128A11EE
:100838000330FA008A30F9005530F800F80B222C02
:10084800F90B222CFA0B222C292C2630F1008730A8
:10085800F2000A128A11A5250A128A110330FA0039
:100868008A30F9005530F800F80B382CF90B382C81
:10087800FA0B382C3F2C831203138C1E442C452C66
:100888003F2C61301A06031D4A2C4B2C622C0A128D
:100898008A11E4250A128A111A30FA005E30F9002A
:1008A8006E30F800F80B562CF90B562CFA0B562C18
:1008B80000000A128A11CB250A128A1162308312AB
:1008C80003131A06031D692C6A2C812C0A128A113B
:1008D800E4250A128A111A30FA005E30F9006E30E7
:1008E800F800F80B752CF90B752CFA0B752C000019
:1008F8000A128A11CB250A128A1163308312031354
:100908001A06031D882C892CA02C0A128A11E425AA
:100918000A128A111A30FA005E30F9006E30F800B7
:10092800F80B942CF90B942CFA0B942C00000A1257
:100938008A11CB250A128A116430831203131A060E
:10094800031DA72CA82CBF2C0A128A11E4250A1211
:100958008A111A30FA005E30F9006E30F800F80B90
:10096800B32CF90BB32CFA0BB32C00000A128A1122
:10097800CB250A128A116530831203131A06031D48
:10098800C62CC72CDE2C0A128A11E4250A128A11F9
:100998001A30FA005E30F9006E30F800F80BD22CED
:1009A800F90BD22CFA0BD22C00000A128A11CB2593
:1009B8000A128A113230831203131A06031DE52C1A
:1009C800E62CEF2CA630F1008630F2000A128A11CC
:1009D800A5250A128A113330831203131A06031D40
:1009E800F62CF72C4F2D3A30F1008730F2000A121E
:1009F8008A11A5250A128A110330FA008A30F900F3
:100A08005530F800F80B062DF90B062DFA0B062DBC
:100A18000D2D4D30F1008730F2000A128A11A525FC
:100A28000A128A110330FA008A30F9005530F800AA
:100A3800F80B1C2DF90B1C2DFA0B1C2D232D5630F1
:100A4800F1008730F2000A128A11A5250A128A11CC
:100A58000330FA008A30F9005530F800F80B322DCF
:100A6800F90B322DFA0B322D392D831203138C1EFC
:100A78003E2D3F2D392D61301A06031D442D452D7D
:100A8800482DAE01AF014F2D62301A06031D4D2DC2
:100A98004E2D4F2D4F2D0800831203139F18552DEF
:100AA800562DA42D1F0CBC003C0C0F39003A031D19
:100AB8005E2D5F2D642D1F08C33904389F009A2DC1
:100AC8001F0CBC003C0C0F39013A031D6C2D6D2D19
:100AD800722D1F08C33908389F009A2D1F0CBC00BF
:100AE8003C0C0F39023A031D7A2D7B2D802D1F08EF
:100AF800C3390C389F009A2D1F0CBC003C0C0F39D1
:100B0800033A031D882D892D8E2D1F08C3391038EF
:100B18009F009A2D1F0CBC003C0C0F39043A031D92
:100B2800962D972D9A2DC3309F059A2D203083122C
:100B38000313BC00BC0B9E2D0000831203139F14EB
:100B480008007330F3007308F600B02D77080A1216
:100B58008A1528270A128A117208F4007108F3000E
:100B6800F10A0319F20A740883120313FF007308C9
:100B780084000A128A1500200A128A11F5007508E5
:100B8800F7007708031DC92DCA2DAA2D0800831266
:100B9800031308140630F1003030F000F00BD22DAA
:100BA800F10BD22D00008312031308102F30F1002F
:100BB800BF30F000F00BDE2DF10BDE2DE32D080029
:100BC800831203130814C730F000EA2DEB2DF00B45
:100BD800E92DEE2DEF2DF02D83120313081033307D
:100BE800F1001F30F000F00BF72DF10BF72DFC2D65
:020BF8000800F3
:100C00000D34203445346C34693467346134203415
:100C100075346E34613420346434653420346C347B
:100C2000613473342034733469346734753469340F
:100C300065346E3474346534733420346F347034F6
:100C4000633469346F346E34653473343A34203429
:100C50000D3400340D3420342D342D342D342D3406
:100C60002D342D342D342D342D342D342D34423467
:100C7000693465346E34763465346E346934643482
:100C80006F342D342D342D342D342D342D342D341A
:100C90002D342D342D342D3420340D3400342034B3
:100CA00031342E3420344D346F347634653472341C
:100CB00020346D346F3474346F347234653473346B
:100CC000203469346E34643469347634693464347D
:100CD000753461346C346534733420340D3400342D
:100CE0000D34203451347534653420346D346F3410
:100CF00074346F347234203464346534733465343E
:100D0000613420346D346F347634653472343F345A
:100D100020340D340034203433342E342034533412
:100D200061346C3469347234203464346534203472
:100D30006C34613420347434653472346D34693405
:100D40006E3461346C3420340D3400340D3420346E
:100D500061342E34203443346F346E34743465344B
:100D60006F342034643465342034313420346134B9
:100D7000203435343A3420340D34003420343234C5
:100D80002E34203445346C3465346734693472341D
:100D9000203475346E3461342034723475347434D4
:100DA00069346E34613420340D34003420346134BD
:100DB0002E3420344D346F3476346534723420341C
:100DC0006D346F3474346F347234203431342034E1
:100DD0000D340034203462342E3420344D346F34DA
:100DE00076346534723420346D346F3474346F3437
:100DF00072342034323420340D34003420346334DF
:100E00002E3420344D346F347634653472342034CB
:100E10006D346F3474346F3472342034333420348E
:100E20000D340034203464342E3420344D346F3487
:100E300076346534723420346D346F3474346F34E6
:100E400072342034343420340D340034203465348A
:100E50002E3420344D346F3476346534723420347B
:100E60006D346F3474346F3472342034353420343C
:100E70000D3400340D342034C234BF34453473345F
:100E800074346134203473346534673475347234A7
:100E90006F343F3420340D340034203461342E3428
:100EA00020345334693420340D3400342034623417
:100EB0002E3420344E346F3420340D3400341F303F
:100EC00083160317880089018316031305148514FC
:100ED0000515851585160614861406150613861342
:100EE00008108810081183120313850186018701F9
:100EF000880183160313811307309500073096008D
:100F00000F178F160F160F148B170B148B150B174B
:100F10000C17831203130C13831603138C160C1671
:100F2000831203131F139F171F14C3309F05203014
:100F300083120313BC00BC0B9B2F0000831603130A
:100F40009F131F129F1287140715FA3092003F302B
:100F50008312031397051708F0390C3897001D0802
:100F6000F0390C389D000F309500CF3097058C106C
:100F70000330920412158C1CBE2FBF2FBB2F8C1078
:100F800083160313871007111812181583160317F9
:100F90008715D0308316031399009A018312031327
:100FA0009817181318168316031398168312031331
:100FB0008C120C120800F1007008831203178D00C8
:100FC00071088C008B13831603178C130C15553086
:100FD0008D00AA308D008C14831203130D1EF12F87
:100FE000F22FEC2F0D12831603170C11080064006A
:0E0FF0008001840A0406031900340406F82F59
:10100000FF1B0A2883137F1883170008840A03191B
:10101000FF0A08007F087F398A000408840A031940
:04102000FF0A820041
:101E5000F000831203130C1E2E2F2F2F292F700832
:101E6000990008000A128A115F270A128A150A12BD
:101E70008A1150250A128A15372F0A128A11122840
:101E8000F1007108831203178D00831603178C135A
:101E90000C14831203170C08F0007008F20072088B
:101EA00008008312031308140430F100E430F0003A
:101EB000F00B582FF10B582F00008312031308105A
:101EC0003130F1000B30F000F00B642FF10B642F78
:101ED000692F0800831203138814C730F000702F95
:101EE000712FF00B6F2F742F752F762F8312031322
:101EF00088103330F1001F30F000F00B7D2FF10B14
:101F00007D2F822F08008312031388140430F10000
:101F1000E430F000F00B8A2FF10B8A2F00008312BF
:101F2000031388103130F1000B30F000F00B962FC6
:101F3000F10B962F9B2F0800831203138814063091
:101F4000F1003030F000F00BA32FF10BA32F0000B5
:101F50008312031388102D30F1002630F000F00BAF
:101F6000AF2FF10BAF2F00000800831203130815E9
:101F7000C730F000BB2FBC2FF00BBA2FBF2FC02FE4
:101F8000C12F8312031308113330F1001F30F0000A
:101F9000F00BC82FF10BC82FCD2F080083120313AD
:101FA00008150430F100E430F000F00BD52FF10BF0
:101FB000D52F00008312031308113130F1000B30CC
:101FC000F000F00BE12FF10BE12FE62F0800831258
:101FD000031308150630F1003030F000F00BEE2F3F
:101FE000F10BEE2F00008312031308112D30F100C6
:101FF0002630F000F00BFA2FF10BFA2F000008004A
:04400E00D420FF3F7C
:00000001FF
